:10031A003F065B4F666D7D077F6F80000102030415
:03032A00050607BE
:1002D7001811FF0338FF033FFF0346FF034DFF03DA
:1002E70054FF035BFF0362FF036908080100000076
:0402F7000000000003
:1002FC0078297C007D007BFF7A0379257E007F08BE
:0E030C001200D37B007A0079291201B880F527
:0B032D00EF1FAC0670011E4C70F622A2
:10022C00E4F54275900FE590640F604E7FE87E0315
:10023C0012032DE590640F6041AF90EF24F5600D33
:10024C0024FE600E2406700D7510018008751002D6
:10025C0080037510037590F0AF90EF2450600C2460
:10026C00E0600C24F060102470800F740380027422
:10027C00062510F5108003E4F510E542C3943250C6
:10028C000FE59064F0600905427F647E0012032D37
:01029C00223F
:07033800D2A2D2A3D2A4223D
:07033F00C2A2D2A3D2A42246
:07034600D2A2C2A3D2A4223F
:07034D00C2A2C2A3D2A42248
:07035400D2A2D2A3C2A42231
:07035B00C2A2D2A3C2A4223A
:07036200D2A2C2A3C2A42233
:07036900C2A2C2A3C2A4223C
:0601B8008B318A3289330D
:1001BE00753D07E4F53E7D0712029DE53ED394079B
:1001CE00505B753C0FAB31AA32A933853E827583E5
:1001DE00001200F9FF7434253EF8A6077434253E4C
:1001EE00F8E6FFD3940950317408253EF8E66029ED
:1001FE008F3CAF3D153DEF75F003A42411F808E6D2
:10020E00FA08E6F9120126E53C90031A93F5807F71
:0D021E00FA7E0012032DE4F580053E809E5F
:01022B0022B0
:06029D008B3F8A408941FD
:1002A300EDD39400402DAF058D827583001200F9C4
:1002B300600FEFD39400401B74082FF876011F8062
:1002C300F174082FF8E4F6AB3FAA40A941ED14FD01
:0302D30012029D77
:0102D6002205
:0300000002012CCE
:0C012C00787FE4F6D8FD75814202017373
:10000300E709F608DFFA8046E709F208DFFA803EDF
:1000130088828C83E709F0A3DFFA8032E309F608CC
:10002300DFFA8078E309F208DFFA807088828C8334
:10003300E309F0A3DFFA806489828A83E0A3F608E8
:10004300DFFA805889828A83E0A3F208DFFA804CC2
:1000530080D280FA80C680D4806980F28033801099
:1000630080A680EA809A80A880DA80E280CA803302
:1000730089828A83ECFAE493A3C8C582C8CCC5837A
:10008300CCF0A3C8C582C8CCC583CCDFE9DEE7804A
:100093000D89828A83E493A3F608DFF9ECFAA9F0C9
:1000A300EDFB2289828A83ECFAE0A3C8C582C8CC1F
:1000B300C583CCF0A3C8C582C8CCC583CCDFEADE38
:1000C300E880DB89828A83E493A3F208DFF980CC9A
:1000D30088F0EF60010E4E60C388F0ED2402B40493
:1000E3000050B9F582EB2402B4040050AF2323453A
:0600F3008223900053730C
:1000F900BB010CE58229F582E5833AF583E02250BC
:1001090006E92582F8E622BBFE06E92582F8E22205
:0D011900E58229F582E5833AF583E493221F
:060126008A838982E47364
:100138000202FCE493A3F8E493A34003F68001F2DF
:1001480008DFF48029E493A3F85407240CC8C333C8
:10015800C4540F4420C8834004F456800146F6DF97
:10016800E4800B01020408102040809002D7E47E4E
:10017800019360BCA3FF543F30E509541FFEE4938C
:10018800A360010ECF54C025E060A840B8E493A353
:10019800FAE493A3F8E493A3C8C582C8CAC583CA7E
:1001A800F0A3C8C582C8CAC583CADFE9DEE780BE36
:0102FB000002
:00000001FF
