:10073D003F065B4F666D7D077F6F805F7C59567BF3
:10074D0071BF8BDBCFE6EDFD87FFEFFFFFFFFFFFF7
:03075D00FFFFFF9C
:100647001824FF07A1FF07A8FF07AFFF07B6FF079B
:10065700BDFF07C4FF07CBFF07D2041E0000000041
:10066700041A00000000014400010907080A0100FC
:100677000000000000000812FFFFFFFFFFFFFFFF61
:10068700083CFFFFFFFFFFFFFFFF012300014500BD
:0606970001080001220031
:080799001202801205C680F86F
:100280001206D8EF12025402B87702C87B02D87D5A
:10029000035E7E02E7B702F6BB0305BD037FBE0324
:1002A00014D70323DB0332DD03A0DE0341E703E3BE
:1002B000ED03C1EE00000476752301E4F5087F012B
:1002C00012070C7F0102035B752301E4F5087F022E
:1002D00012070C7F0202035B752301E4F5087F031C
:1002E00012070C7F038074752301E4F5087F041264
:1002F000070C7F048065752301E4F5087F0512076C
:100300000C7F058056752301E4F5087F0612070C63
:100310007F068047752301E4F5087F0712070C7FED
:10032000078038752301E4F5087F0812070C7F0861
:100330008029752301E4F5087F0912070C7F0980E5
:100340001AE4F508FF12070CE5227003752201E597
:10035000237003020476752201E4FF02077C8521E5
:100360001D85201C851F1B851E1AE4F521F520F52F
:100370001FF51EF523F5227508017544018061857E
:10038000211D85201C851F1B851E1AE4F521F520E3
:10039000F51FF51EF523F52275080175440280400E
:1003A00085211D85201C851F1B851E1AE4F521F55E
:1003B00020F51FF51EF523F522750801754403800D
:1003C0001F85211D85201C851F1B851E1AE4F52114
:1003D000F520F51FF51EF523F52275080175440477
:1003E000020760E4F523F522E54424FE602414604E
:1003F0003C14604E24037067E51D2521F521E51CA2
:100400003520F520E51B351FF51FE51A351EF51EB5
:100410008059C3E51D9521F521E51C9520F520E5C2
:100420001B951FF51FE51A951EF51E803EAF21AEE8
:1004300020AD1FAC1EAB1DAA1CA91BA81A120126B9
:100440008013AB21AA20A91FA81EAF1DAE1CAD1B97
:10045000AC1A1201B18F218E208D1F8C1E800C854D
:100460002121852020851F1F851E1EAF21AE20ADB6
:070470001FAC1E12047722ED
:10070C008F46E47F0AFEFDFCAB21AA20A91FA81E80
:10071C00120126A804A905AA06AB07E4FCFDFEEB12
:10072C002546F521EE3AF520ED39F51FEC38F51E8E
:01073C00229A
:1005C600754F07E4F550E522B4010B1207D29007E8
:1005D6003DE493F580227B007A0079127D071206AE
:1005E6009EE550D394075058E508B40104743C8046
:1005F6000274122550F8E6FF74462550F8A60774D3
:10060600462550F8E6FFD394095031740A2550F870
:10061600E660298F4EAF4F154FEF75F003A42424E3
:10062600F808E6FA08E6F912027AE54E90073D93D5
:10063600F5807FC87E0012078EE4F580055080A104
:010646002291
:06069E008B518A528953C2
:1006A400EDD39400402DAF058D827583001200F9BF
:1006B400600FEFD39400401B740A2FF876011F805B
:1006C400F1740A2FF8E4F6AB51AA52A953ED14FDC4
:0306D40012069E6D
:0106D7002200
:1006D8007590F0E59054F064F060287F057E001274
:1006E800078EE59054F064F06019E59054F0FF44EB
:1006F8000FF590E590540FFEE590540FFDBD0FF8EF
:03070800EF2EFFD2
:01070B0022CB
:10077C00E509C39400400AAE09150974122EF8A6B7
:02078C00072242
:10076000E4FF75090774122FF8E6FE743C2FF8A613
:0B0770000674122FF876FF0FBF08EA96
:01077B00225B
:080477008F498E488D478C4629
:10047F00E4F54A754B01784C7C00FD7BFF7A0779D8
:10048F0058FE7F081200D385495785485685475532
:10049F00854654750907AF57AE56AD55AC54E47B3E
:1004AF000AFAF9F81201B18F578E568D558C54E414
:1004BF00FBFAF9F8C31202436004054B80D8E4F548
:1004CF004A7412254AF876FF054AE54AB408F285C0
:1004DF004957854856854755854654754A07C3740D
:1004EF0007954BD36480F8E54A648098403CE47BE1
:1004FF000AFAF9F8AF57AE56AD55AC541201B1AF79
:10050F00038F58AF57AE56AD55AC54E47B0AFAF98A
:10051F00F81201B18F578E568D558C54C3740795B1
:0A052F004A2412F8A658154A80B4B9
:01053900229F
:0707A100D2A2D2A3D2A422D0
:0707A800C2A2D2A3D2A422D9
:0707AF00D2A2C2A3D2A422D2
:0707B600C2A2C2A3D2A422DB
:0707BD00D2A2D2A3C2A422C4
:0707C400C2A2D2A3C2A422CD
:0707CB00D2A2C2A3C2A422C6
:0707D200C2A2C2A3C2A422CF
:0B078E00EF1FAC0670011E4C70F6223D
:0300000002053ABC
:0C053A00787FE4F6D8FD75815802058139
:10000300E709F608DFFA8046E709F208DFFA803EDF
:1000130088828C83E709F0A3DFFA8032E309F608CC
:10002300DFFA8078E309F208DFFA807088828C8334
:10003300E309F0A3DFFA806489828A83E0A3F608E8
:10004300DFFA805889828A83E0A3F208DFFA804CC2
:1000530080D280FA80C680D4806980F28033801099
:1000630080A680EA809A80A880DA80E280CA803302
:1000730089828A83ECFAE493A3C8C582C8CCC5837A
:10008300CCF0A3C8C582C8CCC583CCDFE9DEE7804A
:100093000D89828A83E493A3F608DFF9ECFAA9F0C9
:1000A300EDFB2289828A83ECFAE0A3C8C582C8CC1F
:1000B300C583CCF0A3C8C582C8CCC583CCDFEADE38
:1000C300E880DB89828A83E493A3F208DFF980CC9A
:1000D30088F0EF60010E4E60C388F0ED2402B40493
:1000E3000050B9F582EB2402B4040050AF2323453A
:0600F3008223900053730C
:1000F900BB010CE58229F582E5833AF583E02250BC
:1001090006E92582F8E622BBFE06E92582F8E22205
:0D011900E58229F582E5833AF583E493221F
:10012600E88FF0A4CC8BF0A42CFCE98EF0A42CFC78
:100136008AF0EDA42CFCEA8EF0A4CDA8F08BF0A4F6
:100146002DCC3825F0FDE98FF0A42CCD35F0FCEB55
:100156008EF0A4FEA9F0EB8FF0A4CFC5F02ECD391A
:0F016600FEE43CFCEAA42DCE35F0FDE43CFC2287
:1001750075F008758200EF2FFFEE33FECD33CDCC41
:1001850033CCC58233C5829BED9AEC99E5829840C4
:100195000CF582EE9BFEED9AFDEC99FC0FD5F0D6A1
:1001A500E4CEFBE4CDFAE4CCF9A88222B800C1B9CB
:1001B5000059BA002DEC8BF084CFCECDFCE5F0CB09
:1001C500F97818EF2FFFEE33FEED33FDEC33FCEB42
:1001D50033FB10D703994004EB99FB0FD8E5E4F9FD
:1001E500FA227818EF2FFFEE33FEED33FDEC33FCEA
:1001F500C933C910D7059BE99A4007EC9BFCE99ADE
:10020500F90FD8E0E4C9FAE4CCFB2275F010EF2F22
:10021500FFEE33FEED33FDCC33CCC833C810D70722
:100225009BEC9AE899400AED9BFDEC9AFCE899F85D
:0E0235000FD5F0DAE4CDFBE4CCFAE4C8F922F0
:10024300EB9FF5F0EA9E42F0E99D42F0E89C45F011
:010253002288
:10025400D083D082F8E4937012740193700DA3A339
:1002640093F8740193F5828883E47374029368604D
:06027400EFA3A3A380DF4D
:06027A008A838982E4730F
:10054600020799E493A3F8E493A34003F68001F22B
:1005560008DFF48029E493A3F85407240CC8C333B6
:10056600C4540F4420C8834004F456800146F6DF85
:10057600E4800B0102040810204080900647E47EC8
:10058600019360BCA3FF543F30E509541FFEE4937A
:10059600A360010ECF54C025E060A840B8E493A341
:1005A600FAE493A3F8E493A3C8C582C8CAC583CA6C
:1005B600F0A3C8C582C8CAC583CADFE9DEE780BE24
:01069D00005C
:00000001FF
