:100723003F065B4F666D7D077F6F805FFFFFFFFFB7
:04073300FFFFFFFFC6
:100614001823FF075CFF0763FF076AFF0771FF07E3
:1006240078FF077FFF0786FF078D041E0000000088
:10063400041A00000000014300010907080A010030
:100644000000000000000812FFFFFFFFFFFFFFFF94
:10065400083BFFFFFFFFFFFFFFFF012200014400F3
:030664000108008A
:080754001202801205A480F8D6
:0B074900EF1FAC0670011E4C70F62282
:100280001206A2EF12025402B87702C87B02D77D91
:1002900003547E02E6B702F5BB0304BD0373BE033D
:1002A00013D70322DB0331DD0392DE0340E703D1E2
:1002B000ED03B1EE00000454752201E4F5087F015E
:1002C0001206D67F01020351752201E4F5087F0270
:1002D0001206D67F02807A752201E4F5087F0312A8
:1002E00006D67F03806B752201E4F5087F041206B1
:1002F000D67F04805C752201E4F5087F051206D6DE
:100300007F05804D752201E4F5087F061206D67F31
:1003100006803E752201E4F5087F071206D67F07A6
:10032000802F752201E4F5087F081206D67F088029
:1003300020752201E4F5087F091206D67F09801195
:10034000E4F508E5227003020454E4FF1206D6E443
:10035000FF02073785211D85201C851F1B851E1A5E
:10036000E4F521F520F51FF51EF52275080175430A
:1003700001805B85211D85201C851F1B851E1AE4BD
:10038000F521F520F51FF51EF522750801754302CC
:10039000803C85211D85201C851F1B851E1AE4F5C8
:1003A00021F520F51FF51EF5227508017543038020
:1003B0001D85211D85201C851F1B851E1AE4F52126
:1003C000F520F51FF51EF522750801754304020797
:1003D00007E4F522E54324FE602414603C14604EDB
:1003E00024037065E51D2521F521E51C3520F52048
:1003F000E51B351FF51FE51A351EF51E804BC3E5BD
:100400001D9521F521E51C9520F520E51B951FF58F
:100410001FE51A951EF51E8030AF21AE20AD1FAC32
:100420001EAB1DAA1CA91BA81A1201268013AB2102
:10043000AA20A91FA81EAF1DAE1CAD1BAC1A12012D
:10044000B18F218E208D1F8C1EAF21AE20AD1FAC31
:050450001E12045522FC
:1006D6008F45E47F0AFEFDFCAB21AA20A91FA81EB8
:1006E600120126A804A905AA06AB07E4FCFDFEEB49
:1006F6002545F521EE3AF520ED39F51FEC38F51EC6
:0107060022D0
:1005A400754E07E4F54FFB7A0079127D0712066851
:1005B400E54FD394075058E508B40104743B800216
:1005C4007412254FF8E6FF7445254FF8A6077445C5
:1005D400254FF8E6FFD394095031740A254FF8E605
:1005E40060298F4DAF4E154EEF75F003A42423F808
:1005F40008E6FA08E6F912027AE54D90072393F526
:0F060400807FC87E00120749E4F580054F80A172
:0106130022C4
:060668008B508A518952FB
:10066E00EDD39400402DAF058D827583001200F9F5
:10067E00600FEFD39400401B740A2FF876011F8091
:10068E00F1740A2FF8E4F6AB50AA51A952ED14FDFD
:03069E00120668D9
:0106A1002236
:1006A2007590F0E59054F064F060287F057E0012AA
:1006B2000749E59054F064F06019E59054F0FF4466
:1006C2000FF590E590540FFEE590540FFDBD0FF825
:0306D200EF2EFF09
:0106D5002202
:10073700E509C39400400AAE09150974122EF8A6FC
:02074700072287
:10070700E4FF75090774122FF8E6FE743B2FF8A66D
:0B0717000674122FF876FF0FBF08EAEF
:0107220022B4
:080455008F488E478D468C454F
:10045D00E4F549754A01784B7C00FD7BFF7A0779FD
:10046D002FFE7F081200D385485685475585465483
:10047D00854553750907AF56AE55AD54AC53E47B66
:10048D000AFAF9F81201B18F568E558D548C53E43A
:10049D00FBFAF9F8C31202436004054A80D8E4F56B
:1004AD004974122549F876FF0549E549B408F285E6
:1004BD004856854755854654854553754907C37438
:1004CD0007954AD36480F8E549648098403CE47B05
:1004DD000AFAF9F8AF56AE55AD54AC531201B1AF9F
:1004ED00038F57AF56AE55AD54AC53E47B0AFAF9B2
:1004FD00F81201B18F568E558D548C53C3740795D8
:0A050D00492412F8A657154980B4DE
:0105170022C1
:07075C00D2A2D2A3D2A42215
:07076300C2A2D2A3D2A4221E
:07076A00D2A2C2A3D2A42217
:07077100C2A2C2A3D2A42220
:07077800D2A2D2A3C2A42209
:07077F00C2A2D2A3C2A42212
:07078600D2A2C2A3C2A4220B
:07078D00C2A2C2A3C2A42214
:03000000020518DE
:0C051800787FE4F6D8FD75815702055F7E
:10000300E709F608DFFA8046E709F208DFFA803EDF
:1000130088828C83E709F0A3DFFA8032E309F608CC
:10002300DFFA8078E309F208DFFA807088828C8334
:10003300E309F0A3DFFA806489828A83E0A3F608E8
:10004300DFFA805889828A83E0A3F208DFFA804CC2
:1000530080D280FA80C680D4806980F28033801099
:1000630080A680EA809A80A880DA80E280CA803302
:1000730089828A83ECFAE493A3C8C582C8CCC5837A
:10008300CCF0A3C8C582C8CCC583CCDFE9DEE7804A
:100093000D89828A83E493A3F608DFF9ECFAA9F0C9
:1000A300EDFB2289828A83ECFAE0A3C8C582C8CC1F
:1000B300C583CCF0A3C8C582C8CCC583CCDFEADE38
:1000C300E880DB89828A83E493A3F208DFF980CC9A
:1000D30088F0EF60010E4E60C388F0ED2402B40493
:1000E3000050B9F582EB2402B4040050AF2323453A
:0600F3008223900053730C
:1000F900BB010CE58229F582E5833AF583E02250BC
:1001090006E92582F8E622BBFE06E92582F8E22205
:0D011900E58229F582E5833AF583E493221F
:10012600E88FF0A4CC8BF0A42CFCE98EF0A42CFC78
:100136008AF0EDA42CFCEA8EF0A4CDA8F08BF0A4F6
:100146002DCC3825F0FDE98FF0A42CCD35F0FCEB55
:100156008EF0A4FEA9F0EB8FF0A4CFC5F02ECD391A
:0F016600FEE43CFCEAA42DCE35F0FDE43CFC2287
:1001750075F008758200EF2FFFEE33FECD33CDCC41
:1001850033CCC58233C5829BED9AEC99E5829840C4
:100195000CF582EE9BFEED9AFDEC99FC0FD5F0D6A1
:1001A500E4CEFBE4CDFAE4CCF9A88222B800C1B9CB
:1001B5000059BA002DEC8BF084CFCECDFCE5F0CB09
:1001C500F97818EF2FFFEE33FEED33FDEC33FCEB42
:1001D50033FB10D703994004EB99FB0FD8E5E4F9FD
:1001E500FA227818EF2FFFEE33FEED33FDEC33FCEA
:1001F500C933C910D7059BE99A4007EC9BFCE99ADE
:10020500F90FD8E0E4C9FAE4CCFB2275F010EF2F22
:10021500FFEE33FEED33FDCC33CCC833C810D70722
:100225009BEC9AE899400AED9BFDEC9AFCE899F85D
:0E0235000FD5F0DAE4CDFBE4CCFAE4C8F922F0
:10024300EB9FF5F0EA9E42F0E99D42F0E89C45F011
:010253002288
:10025400D083D082F8E4937012740193700DA3A339
:1002640093F8740193F5828883E47374029368604D
:06027400EFA3A3A380DF4D
:06027A008A838982E4730F
:10052400020754E493A3F8E493A34003F68001F292
:1005340008DFF48029E493A3F85407240CC8C333D8
:10054400C4540F4420C8834004F456800146F6DFA7
:10055400E4800B0102040810204080900614E47E1D
:10056400019360BCA3FF543F30E509541FFEE4939C
:10057400A360010ECF54C025E060A840B8E493A363
:10058400FAE493A3F8E493A3C8C582C8CAC583CA8E
:10059400F0A3C8C582C8CAC583CADFE9DEE780BE46
:010667000092
:00000001FF
